:100000004CC100007BC1000079C1000077C1000035
:1000100075C1000073C1000071C100006FC1000014
:100020006DC100006BC1000069C1000067C1000024
:1000300065C1000063C1000061C100005FC1000034
:100040005DC100005BC1000059C1000057C1000044
:1000500055C1000053C1000051C100000C9475212E
:100060004DC100000C94B7240C94ED2447C100004E
:1000700045C1000043C1000041C100003FC1000074
:100080003DC100003BC1000039C1000037C1000084
:100090000C9462250C94982531C100003DC60000E7
:1000A0002DC100002BC1000029C1000027C10000A4
:1000B00025C1000023C1000021C100001FC10000B4
:1000C0001DC100001BC1000019C100000C940D26C9
:1000D0000C94432613C100000C94B8260C94EE2611
:1000E0000DC10000A022A322922296229C22DA2295
:1000F000A722AB22B122B522B922BF22C322C72236
:10010000DA22CD22D122D522084AD73B3BCE016E3E
:1001100084BCBFFDC12F3D6C74319ABD56833DDA5E
:100120003D00C77F11BED9E4BB4C3E916BAAAABE6D
:10013000000000803F007C3C3E5E2B3D3F2F5B5D1E
:100140003B2C2A225C0000000A0B02090C0D0E0851
:100150000703040100000000000000000000000090
:10016000000000000000000000000000000000008F
:10017000000012111000000000000000000000004C
:10018000000000000000000000000000010210203C
:1001900020080810204010204080020102010804BD
:1001A0000201010204081020408080402010080451
:1001B00002018004020180402010080402010804AA
:1001C00002010102040810204080010204081020EE
:1001D0004080050505050705080808080202020217
:1001E0000A0A0808040404040101010101010101D3
:1001F0000303030303030303040707070C0C0C0C9E
:100200000C0C0C0C02020202060606060606060686
:100210000B0B0B0B0B0B0B0B000022002500280017
:100220002B002E00310034000201000005010801FE
:100230000B0100002100240027002A002D003000BF
:10024000330001010000040107010A014E414E493B
:100250004E495459494E46CDCCCC3D0AD7233C1784
:10026000B7D13877CC2B329595E6241FB14F0A00D1
:100270000020410000C84200401C4620BCBE4CCAC1
:100280001B0E5AAEC59D7400B902A305C10AD20D5A
:100290001F25CA2575262027C40211241FBECFEFB3
:1002A000D1E2DEBFCDBF00E00CBF15E0A0E0B2E0C0
:1002B000EEE9F2E600E00BBF02C007900D92AA3C07
:1002C000B107D9F72CE0AAECB5E001C01D92AE3E13
:1002D000B207E1F712E0C8E9D2E000E006C02297D9
:1002E0000109FE010BBF0E946F2BC838D10780E0C7
:1002F0000807A9F70E9464270C943E3181CE2DE7B0
:1003000034E0FC0131832083089508952DE734E023
:10031000FC01318320830C947027CF92DF92EF92FF
:10032000FF92CF93DF93CDB7DEB7A4970FB6F894C3
:10033000DEBF0FBECDBFBE016F5F7F4F8BE496E087
:100340000E94701B2D893E894F89588D698D7A8D49
:100350008B8D9C8D0E94E92820E030E044E353E43B
:100360000E94BB2A2BED3FE049E450E40E94402963
:100370006B017C0120E030E0A9010E943C2987FF4D
:100380000AC020E030E044EB53E4C701B6010E940C
:1003900076286B017C01C701B601A4960FB6F894CC
:1003A000DEBF0FBECDBFDF91CF91FF90EF90DF900A
:1003B000CF9008954F925F926F927F928F929F920B
:1003C000AF92BF92CF92DF92EF92FF92CF93DF93E3
:1003D000CDB7DEB76B970FB6F894DEBF0FBECDBFBB
:1003E0000E94BF216B017C014B015C0184E6880EF9
:1003F000911CA11CB11C91DF6093FC027093FD0263
:100400008093FE029093FF028EE096E00E944E1FC2
:100410006EE076E08EEA9BE00E94082182E090E0A8
:100420000E94631E8091000690910106A091020631
:10043000B09103068093DE059093DF05A093E0055D
:10044000B093E10523E144E852E065E277E0CE01B4
:1004500001960E943C0A8B819C8190933306809385
:1004600032068D819E81AF81B8858093340690934A
:100470003506A0933606B093370689859A85AB85F5
:10048000BC858093380690933906A0933A06B093C2
:100490003B068DE0FE013D96ACE3B6E001900D9287
:1004A0008A95E1F78A8D9B8D90934A068093490641
:1004B00060E085E00E94142368E273E084E79AE03C
:1004C0000E94AF270E94BF219B01AC012C193D095E
:1004D0004E095F09A4E6B0E00E94652B24E630E0F7
:1004E00040E050E00E94212B29013A0180E396E090
:1004F000A3D6882339F04AE050E0B20180E396E0C9
:100500000E945E284AE050E0B20184E79AE00E942F
:100510005E2880E396E090D6882341F060E086E094
:100520000E94142380E396E075D604C061E086E063
:100530000E941423C814D904EA04FB0428F40E947E
:10054000BF216B017C01F6CF6B960FB6F894DEBF2E
:100550000FBECDBFDF91CF91FF90EF90DF90CF9096
:10056000BF90AF909F908F907F906F905F904F90D3
:1005700008954BE658ED64E170E08BE496E00E944C
:10058000D31980E396E0E6C58DE794E090934C069E
:1005900080934B06089561E084E00E94DB2226E010
:1005A00040EC52E160E070E08BE49CE00E94572454
:1005B00060E084E00E94142384E79AE00E94D22342
:1005C0008BE49CE00E94D22368E873E180E090E035
:1005D0000E94EE216AE373E084E79AE00E94BA2762
:1005E00086E493E00E94931C66E473E08BE49CE055
:1005F0000E94BA2782E3809369038FE593E00E940B
:10060000931C6FE573E08BE49CE00E94BA2762E5DF
:1006100074E084E79AE00E94BA276CE072E084E715
:100620009AE00E94BA2760910A0270910B0284E757
:100630009AE00E94BA27609108027091090284E74B
:100640009AE00E94AF27609108027091090284E746
:100650009AE00E94AF27609106027091070284E73A
:100660009AE00E94BA278FE290E0A0E0B0E0809389
:10067000CA059093CB05A093CC05B093CD0586E831
:100680009FEFAFEFBFEF8093CE059093CF05A09380
:10069000D005B093D1058AEC95E00E94CD1C80EA8C
:1006A00096E8A1E0B0E08093DA059093DB05A09393
:1006B000DC05B093DD050E94BF216093DE057093D9
:1006C000DF058093E0059093E1051092E605109216
:1006D000E7051092E8051092E90588EE93E0909303
:1006E000E3058093E2051092E5051092E4056AECBB
:1006F00075E08CEE95E00E94091E8AEC95E00E9460
:100700001D1DBC0184E79AE00E94BA2706DE6093B3
:10071000FC027093FD028093FE029093FF02089505
:10072000CF93DF93CDB7DEB76B970FB6F894DEBFEC
:100730000FBECDBF60E080E00E94DB2261E081E07F
:100740000E94DB2260E08EE00E94DB2261E08FE00D
:100750000E94DB2260E081E10E94DB2261E080E117
:100760000E94DB2260E083E10E94DB2261E082E103
:100770000E94DB2261E084E00E94DB2226E040EC64
:1007800052E160E070E08BE49CE00E94572426E098
:1007900040E855E260E070E084E79AE00E94572468
:1007A00060E084E00E94142361E08AE00E94DB2282
:1007B00061E085E30E94DB2261E086E00E94DB22AB
:1007C00061E085E00E94DB2260E085E00E94142366
:1007D00060E086E00E94142361E08BE496E00E94D2
:1007E0007B198BE496E00E94D41A811107C069E757
:1007F00073E084E79AE00E94BA27FFCFCCDE6AE07C
:1008000085E297E026D581110BC06AEA73E084E7A0
:100810009AE00E94BA2761E086E00E9414236FC02C
:1008200066EC73E084E79AE00E94BA2723E144E88B
:1008300052E065E277E0CE0101961ED68B819C8165
:1008400090933306809332068D819E81AF81B88567
:100850008093340690933506A0933606B0933706FE
:1008600089859A85AB85BC85809338069093390637
:10087000A0933A06B0933B068DE0FE013D96ACE3B3
:10088000B6E001900D928A95E1F78A8D9B8D909349
:100890004A068093490680E396E0CED4882379F116
:1008A00062E574E080E396E00E94BA276CE072E0B3
:1008B00080E396E00E94BA2760910A0270910B02D1
:1008C00080E396E00E94BA276091080270910902C5
:1008D00080E396E00E94AF276091080270910902C0
:1008E00080E396E00E94AF276091060270910702B4
:1008F00080E396E00E94BA2780E396E08BD46B9663
:100900000FB6F894DEBF0FBECDBFDF91CF91089533
:100910008091910690E020919206821B91090895A2
:100920002091920680919106281750F4E22FF0E072
:10093000ED56F94F808190E02F5F20939206089545
:100940008FEF9FEF0895E091920680919106E8174E
:1009500030F4F0E0ED56F94F808190E008958FEF8C
:100960009FEF08950895CF92DF92EF92FF920F9339
:100970001F93CF93DF937C01CB018A0120916D06F9
:10098000222389F0EB016B01C40ED51ECC15DD05C9
:1009900061F06991D701ED91FC910190F081E02D1A
:1009A000C7011995F3CF642F8ED1C801DF91CF9184
:1009B0001F910F91FF90EF90DF90CF900895CF930C
:1009C000DF931F92CDB7DEB7698320916D06222396
:1009D000D1F020916E06203240F021E030E0FC01A1
:1009E0003383228380E090E014C080916F06E82F6B
:1009F000F0E0E059F94F998190838F5F80936F0603
:100A000080936E0604C061E0CE0101965CD181E066
:100A100090E00F90DF91CF910895FC011382128234
:100A200048EE53E060E070E044835583668377834B
:100A30008BE894E09183808308951092920610923F
:100A4000910610926F0610926E0680C081E080932E
:100A50006D066093900610926F0610926E060895D0
:100A60000F93062F21E040916E0660E776E08091BB
:100A70009006D2D010926F0610926E0610926D06FC
:100A80000F9108958F929F92AF92BF92CF92DF9273
:100A9000EF92FF920F931F93CF93DF93EC01F62E0B
:100AA000D42E48015901EE2009F1D0DF1E2D14305B
:100AB00008F013E01150B8F0E881F98128E0129FA6
:100AC000B0011124A501940104C0569547953795AE
:100AD00027956A95D2F7CA01B9010190F081E02DFE
:100AE000CE011995E7CF60E0CE01BADF4D2D41323E
:100AF00008F040E22C2D63E976E08F2D45D010926E
:100B0000920680939106DF91CF911F910F91FF90F4
:100B1000EF90DF90CF90BF90AF909F908F9008950F
:100B2000CF92EF920F931F93C22EE12C00E010E0C2
:100B30009801A8DF1F910F91EF90CF90089521E0C9
:100B4000EFCF61E08DCF81E696E067CF109220076E
:100B500081E080931E0710921D0761E084E10E94EE
:100B6000142361E085E10E941423E9EBF0E0808129
:100B70008E7F808380818D7F808388E48093B8001E
:100B800085E48093BC000895413208F043C0909101
:100B900020079111FCCF91E09093200720931E072E
:100BA0002FEF2093B3061092F806240F2093F70638
:100BB00090931F0790911F07880F892B80931F0721
:100BC00080911D07813061F410921D0780911F07ED
:100BD0008093BB008091BC0083FDF8CF85EC01C001
:100BE00085EE8093BC00809120078130E1F38091F5
:100BF000F806841710F44091F80629EF36E0FB015F
:100C0000D9018A2F821B841718F48D918193F9CF13
:100C1000842F089580E008950F93413208F04AC070
:100C2000909120079111FCCF92E0909320070093C0
:100C30001E079FEF9093B3061092F8064093F706B5
:100C4000FB0169EF76E0DB019A2F961B941718F4ED
:100C500091919D93F9CF10921F0790911F07880FD4
:100C6000892B80931F0780911D07813061F41092BA
:100C70001D0780911F078093BB008091BC0083FDFE
:100C8000F8CF85EC01C085EE8093BC00222321F0D3
:100C9000809120078230E1F38091B3068F3F61F0AD
:100CA0008091B306803251F08091B306803341F4D5
:100CB00083E007C081E005C080E003C082E001C09E
:100CC00084E00F910895613298F420912007243038
:100CD00089F46093D506FC0187ED96E0DC012A2FAC
:100CE000281B261718F421912D93F9CF80E0089541
:100CF00081E0089582E0089585ED8093BC008091A5
:100D0000BC0084FDFCCF10922007089585EC8093F1
:100D1000BC001092200708951F920F920FB60F92F9
:100D200011240BB60F922F933F934F935F936F93C2
:100D30007F938F939F93AF93BF93EF93FF93809194
:100D4000B900887F803609F49DC070F5883209F4B7
:100D50005CC090F4803109F455C038F4882309F45C
:100D6000F3C0883009F44EC0F2C0883109F44DC098
:100D7000803209F45EC0EBC0803409F469C050F4DD
:100D8000803309F456C0883309F0E1C08093B3067C
:100D9000BDDFDDC0803509F44FC0883509F45DC082
:100DA000883409F0D4C0D2C0883909F4C3C0A8F48B
:100DB000883709F467C038F4883609F463C080378F
:100DC00009F460C0C4C0883809F4B4C0803909F49B
:100DD0005FC0803809F0BBC05BC0803B09F482C0B3
:100DE00038F4803A09F466C0883A09F47BC0AFC091
:100DF000803C09F4A3C0883C09F4A0C0883B09F4F6
:100E000086C0A5C080911F0710C09091F806809100
:100E1000F706981770F5E091F80681E08E0F809341
:100E2000F806F0E0E750F94F80818093BB0085EC35
:100E300082C08093B3068AC0E091F80681E08E0FED
:100E40008093F8068091BB00F0E0E750F94F808373
:100E50009091F8068091F7066AC0E091F80681E06B
:100E60008E0F8093F8068091BB00F0E0E750F94FB9
:100E7000808380911E07811169C081E080931D07E6
:100E800084EA5DC083E0809320071092B406CFCF40
:100E90008091B406803208F04DC0E091B40681E044
:100EA0008E0F8093B4068091BB00F0E0EB54F94FB5
:100EB0008083BDCF2BDF8091B406803230F4E09187
:100EC000B406F0E0EB54F94F10826091B40670E084
:100ED000E0911907F0911A0785EB96E019951092A9
:100EE000B40635C084E0809320071092D606109295
:100EF000D506E0911B07F0911C0719958091D50646
:100F0000811105C081E08093D5061092D706E0914B
:100F1000D60681E08E0F8093D606F0E0E952F94FB5
:100F200080818093BB009091D6068091D50698175A
:100F300008F47DCF85E88093BC0009C085EC8093E0
:100F4000BC001092200703C01092B306D5DEFF91BB
:100F5000EF91BF91AF919F918F917F916F915F9131
:100F60004F913F912F910F900BBE0F900FBE0F909E
:100F70001F901895CF93CFB7F894809124078111D3
:100F800027C0E7E0F2E08491E1ECF1E09491E82FF2
:100F9000F0E0EE0FFF1FEE5CFD4FA591B4918C9138
:100FA000892321F461E085E30E94142361E085E355
:100FB0000E94DB228CB580618CBD8CB580648CBDB9
:100FC00061E084E30E94DB2261E083E30E94DB2294
:100FD000809124078F5F80932407CFBFCF9108951E
:100FE000CF93DF931F92CDB7DEB76983DC01ED911C
:100FF000FC910280F381E02D41E050E0BE016F5F83
:101000007F4F19950F90DF91CF910895CF93DF9384
:10101000EC01898D9A8D009759F0FC0113821282A0
:101020000E943813E98DFA8D22813381232B31F010
:1010300081E090E09B838A8380E090E0DF91CF9114
:101040000895FC01818D928D009711F00C94EA10A7
:101050000895CF93DF931F92CDB7DEB741E050E004
:10106000BE016F5F7F4FCCD6019719F4898190E064
:1010700002C08FEF9FEF0F90DF91CF910895FC0199
:10108000818D928D009709F0E4CF8FEF9FEF089547
:101090000F931F93CF93DF938C01FC01818D928D71
:1010A0000097A9F0D6DFEC018F3FFFEF9F0791F08B
:1010B000F801818D928DFC0142855385648575858B
:1010C0004150510961097109EAD7CE0105C080E09C
:1010D00090E002C08FEF9FEFDF91CF911F910F91B2
:1010E0000895CF92DF92EF92FF920F931F93CF93C9
:1010F000DF93EC017B016A011B821A8208EE13E088
:1011000020E030E00C831D832E833F838BE994E045
:10111000998388838DE190E00E94822B9A8F898F3A
:10112000009779F02DE1F701DC0101900D922A95ED
:10113000E1F74CE050E0B601CE010C960E94C82CBD
:10114000188EDF91CF911F910F91FF90EF90DF905C
:10115000CF900895FC011382128248EE53E060E0C4
:1011600070E044835583668377838BE994E09183B1
:101170008083128E118E14860895DC015996ED91AC
:10118000FC915A97309729F06285738584859585FF
:1011900008956FEF7FEFCB010895DC015996ED9133
:1011A000FC915A97309729F06389748985899689CB
:1011B000089560E070E0CB010895CF92DF92EF9246
:1011C000FF92CF93DF93EC01898D9A8D892BC9F023
:1011D000CE01E3DF6B017C01CE01CFDFA7019601D9
:1011E000261B370B480B590BDA01C901811530E872
:1011F0009307A105B10538F08FEF9FE7A0E0B0E0BD
:1012000002C080E090E0DF91CF91FF90EF90DF90FF
:10121000CF900895CF93DF93EC01898D9A8D00973D
:1012200041F00E942F11898D9A8D0E941A2C1A8EDE
:10123000198EDF91CF910895DC015996ED91FC91C3
:101240005A97309721F081E09581911101C080E09B
:1012500008950F931F93CF93DF93EC01462F61E026
:10126000C0D2811102C080E01CC08E01045F1F4FFC
:1012700041E0BE01C8010E946918882351F0B801FD
:10128000CE018A966ED591E0811101C090E0892F40
:1012900008C040E0BE01C8010E946918882319F304
:1012A000EECFDF91CF911F910F910895FC01DB01EB
:1012B00012968D919C911397938382838DEA94E08B
:1012C0009183808314968C911497848315968C91C6
:1012D0001597858316964D915D916D917C91199727
:1012E00046835783608771871A964D915D916D9102
:1012F0007C911D9742875387648775871E964D9111
:101300005D916D917C91519746875787608B718B6A
:1013100052968C915297828B53964D915D916D911F
:101320007C915697438B548B658B768B57964D915A
:101330005D916D917C915A97478B508F618F728F21
:101340005B968D919C915C97948F838F08954F92BB
:101350005F926F927F928F929F92AF92BF92CF9245
:10136000DF92EF92FF920F931F93CF93DF93CDB74E
:10137000DEB7C754D1090FB6F894DEBF0FBECDBF9C
:101380006C014A013901665D7F4F5E018EE1A80E56
:10139000B11CC5018BDF1C821B828DEA94E09A830D
:1013A00089831E828401FE0131967F015A2C4B2CC9
:1013B0006FE270E0C8010E94BD2C0097D9F1F801DE
:1013C00020812F3219F40F5F1F4FF2CF801B8D3019
:1013D00008F08CE0A82EB12CA501B801CE01CB9667
:1013E0000E94C82CEBE3F0E0EC0FFD1FEA0DFB1DA3
:1013F0001082C70134D721E0AE01455C5F4F652DF7
:10140000742DC7010E945912811109C0F60113827F
:1014100012828DEA94E091838083158214C00A0DB4
:101420001B1D852D942D1BD7C2015E2C4F2CE92E40
:10143000F82EBECF08191909F30111830083652D19
:10144000742DC60133DFC601C95BDF4F0FB6F894B8
:10145000DEBF0FBECDBFDF91CF911F910F91FF90E7
:10146000EF90DF90CF90BF90AF909F908F907F9044
:101470006F905F904F9008959F92AF92BF92CF92DE
:10148000DF92EF92FF920F931F93CF93DF93CDB72D
:10149000DEB7C955D1090FB6F894DEBF0FBECDBF78
:1014A0007C016B015A01922E9E01285A3F4FCE01BA
:1014B000CB964DDF6A960EAD1FAD6A970A0D1B1DC8
:1014C000F8018081811109C0BE01655C7F4FCE01AA
:1014D0000196ECDE47EA54E03BC019A218A28DEA5F
:1014E00094E09F8F8E8F1BA221968FAD2197811143
:1014F00003C0C7012FDE31C08250823058F4B601DC
:10150000665D7F4F292DA801CE014E96D2D781115D
:101510000EC0EFCF292DA801BE01655C7F4FCE0123
:101520004E96C7D7882329F3CE01CB9698D6892D1E
:10153000867039F049A95AA96BA97CA9CE014E96AB
:10154000AED5BE01625E7F4FCE010196AFDEA8012F
:10155000BE016F5F7F4FC701C4DDC701C75ADF4FB0
:101560000FB6F894DEBF0FBECDBFDF91CF911F91B4
:101570000F91FF90EF90DF90CF90BF90AF909F9032
:10158000089510922A0710922B0710922E0710929E
:10159000300782E090E0A0E0B0E0809331079093C4
:1015A0003207A0933307B093340710924807109284
:1015B0005207109251078DEA94E090935007809360
:1015C0004F071092540708959FB7F894209123076E
:1015D00080912107213019F48DBB9FBF08958FBFE3
:1015E000089520912307222399F03FB7F894209182
:1015F0002307213059F42DB3209321074DB32091B7
:101600002207209524232DBB3FBF02C03093210722
:101610008CBD9DBD08958EBD00000DB407FEFDCFAD
:101620008EB508958FEFF7CF61E0FC0184810E94B1
:10163000142380916E07882331F010926E078091F9
:1016400023078111C1CF0895CF93DF93EC018091DF
:101650006E07811108C081E080936E0780916F074B
:1016600090917007BEDF60E08C81DF91CF910C9488
:101670001423CF93DF93EC018E81882379F08F813F
:1016800098859C012F5F3F4F38872F83823092408F
:1016900010F4C8DFF4CFCE01C7DF1E82DF91CF91F7
:1016A0000895673028F026E1FC01258380E0089545
:1016B000623081F030F4662359F06130B1F480E596
:1016C00015C0643059F040F0653079F482E50EC001
:1016D00080E505C081E503C081E508C082E580930F
:1016E0006F0781E080937007089583E580936F070B
:1016F0001092700781E008950F931F93CF93DF93AB
:10170000EB010E94BF218B018DDF8F3F49F00E94CA
:10171000BF21601B710B6C177D07B0F380E001C027
:1017200081E0DF91CF911F910F910895CF92DF92C9
:10173000FF920F931F93CF93DF9300D01F92CDB7EB
:10174000DEB76C01F62E29833A834B835C8391DFED
:10175000C6017ADF6CE271E0C601CEDF8F2D8064B6
:101760005ADF08E110E05C814B813A812981DA017E
:10177000C901002E04C0B695A795979587950A9440
:10178000D2F729833A834B835C8345DF08501109E4
:1017900029813A814B815C81083F8FEF180739F727
:1017A000FF2029F0E8E0FE1621F08FEF03C085E965
:1017B00001C087E830DF10E035DFF601828787FF60
:1017C00004C01F3F11F01F5FF7CF0F900F900F90D5
:1017D0000F90DF91CF911F910F91FF90DF90CF90ED
:1017E0000895BF92CF92DF92EF92FF920F931F93D3
:1017F000CF93DF93EC01B62E1B8619861E821D82C5
:101800004C830E94BF218B0161E08C810E94DB220E
:1018100061E08C810E941423ADDB82E580936F0729
:101820001092700780916F0790917007DADE2AE0BE
:10183000F22E8FEFF0DEFA94E1F780912307811109
:10184000C3DECE0101DF20E030E0A90160E0CE017F
:101850006DDFF82E8A8781E0F81649F00E94BF21DB
:10186000601B710B613D774070F381E046C02AEA4E
:1018700031E040E050E068E0CE0158DF82FF02C076
:10188000FB860CC094E0F92ECDDE8A87FA94E1F74E
:101890008A3A11F082E031C082E08B878B858230FA
:1018A00031F4C12CD12CE12C80E4F82E03C0C12CE2
:1018B000D12C760120E030E0A90167E3CE0136DFCC
:1018C000A701960169E2CE0131DF8A87882349F0BA
:1018D0000E94BF21601B710B613D774058F388E087
:1018E0000CC08B85823001F520E030E0A9016AE36D
:1018F000CE011CDF882379F086E08D83CE0194DE53
:1019000080E0DF91CF911F910F91FF90EF90DF90DA
:10191000CF90BF90089586DE807C803C11F483E0F8
:101920008B8780DE7FDE7EDECE017EDE6B2DCE01FC
:10193000DF91CF911F910F91FF90EF90DF90CF90AB
:10194000BF90AFCE0F931F93CF93DF93EC010E9414
:10195000BF218B0167DE8A878F3F49F40E94BF2138
:10196000601B710B6D327140A8F38FE003C08E3F96
:1019700031F08DE08D83CE0157DE80E001C081E043
:10198000DF91CF911F910F910895CF92DF92EF9247
:10199000FF920F931F93CF93DF93EC016901011521
:1019A000110509F45DC0C801820F931F8130924078
:1019B00008F058C08E81882371F088819981AA81AE
:1019C000BB81481759076A077B0729F48F819885DF
:1019D000C816D90600F5488359836A837B838B85B3
:1019E000833039F039E0440F551F661F771F3A9551
:1019F000D1F79A01AB0161E1CE0198DE882319F09D
:101A000083E08D832FC0CE019DDF882359F1188696
:101A10001F8281E08E838F8198858C159D0538F417
:101A200001DE8F819885019698878F83F4CF6701B7
:101A3000E00EF11ECE14DF0429F0F4DDF6018193EF
:101A40006F01F8CF8F819885800F911F98878F83C2
:101A50002985222319F08115924010F0CE0109DE6C
:101A600081E003C0CE01E0DD80E0DF91CF911F91E6
:101A70000F91FF90EF90DF90CF900895EF92FF923B
:101A80000F931F93790100E012E020E030E07DDF4A
:101A90001F910F91FF90EF900895CF92DF92EF92F8
:101AA000FF920F931F93CF93DF931F921F92CDB797
:101AB000DEB78C01862F49835A83ADDD4981C42E60
:101AC0005A81D52EE12CF12CF60181916F01A3DD15
:101AD000FFEFEF1AFF0AE11482E0F806A9F78FEF93
:101AE0009ADD8FEF98DD9EDDF80182878F7185305A
:101AF00031F081E18583C80197DD80E001C081E09C
:101B00000F900F90DF91CF911F910F91FF90EF9069
:101B1000DF90CF9008950F931F93CF93DF93EC0145
:101B20008901411551056105710511F482E12DC04E
:101B30008B85833039F089E0440F551F661F771F6E
:101B40008A95D1F79A01AB0168E1CE01EFDD8823D8
:101B500011F084E01AC0A8016EEFCE019EDF882349
:101B6000A9F068E572E0CE01C7DD811102C085E110
:101B70000CC020E030E0A9016DE0CE01D7DD81117D
:101B800003C050DD882331F084E18D83CE014CDD2C
:101B900080E003C0CE0148DD81E0DF91CF911F914D
:101BA0000F91089580E580936F0710927007089554
:101BB000CF93DF93EC019C012A5F3F4F41E050E05F
:101BC00060E070E08B8D9C8D0E9404178823A1F04B
:101BD0004F89588D698D7A8D452B462B472B71F493
:101BE0004E815F81688579854F8B588F698F7A8F99
:101BF0008C8180688C8302C080E001C081E0DF912D
:101C0000CF910895CF92DF92EF92FF921F93CF93DF
:101C1000DF93EC01CDDF811102C080E04AC0EB8D83
:101C2000FC8DCE80DF80E884F98482E0C81AD10878
:101C3000E108F108058404C0CC0CDD1CEE1CFF1C7F
:101C40000A94D2F74685578560897189C40ED51EDE
:101C5000E61EF71E148181E0C81AD108E108F108D8
:101C6000112359F0C701B601610F711D811D911D2E
:101C700019D7882391F21150F3CFEB8DFC8DC12C35
:101C800082E0D82EE12CF12C058404C0CC0CDD1CA4
:101C9000EE1CFF1C0A94D2F74B895C896D897E8902
:101CA0004C0D5D1D6E1D7F1D4B8B5C8B6D8B7E8B7C
:101CB00081E0DF91CF911F91FF90EF90DF90CF9067
:101CC0000895CF93DF93EC01462F6E857F85888939
:101CD0009989AFD6882341F08A8920E2829FC0018A
:101CE00011248658984F02C080E090E0DF91CF9198
:101CF0000895282FFB018BE030E231938150E9F702
:101D0000A22FB92F20E037E09D91992319F19E323F
:101D100019F0E6E3F1E008C03A3011F128E03AE0CA
:101D2000F3CF31964917E1F044914111FACF3217C0
:101D3000B8F04FED490F4E3598F441E0420FFB01EA
:101D4000E20FF11D2FE9290F2A3108F490529083F8
:101D5000242FDACF81E0FB019081903209F480E0FA
:101D600008950F931F93CF93DF93EC018B018D8127
:101D7000882311F080E03FC0FB0187898031B1F4F6
:101D800082E08D831F8A188E198E1A8E408D518D98
:101D900060E070E095E0440F551F661F771F9A952D
:101DA000D1F74B8B5C8B6D8B7E8B14C0803211F71F
:101DB00083E08D83FB01428D538D648D758D4F8B38
:101DC000588F698F7A8F9E012D5E3F4FC80112D7C1
:101DD000882381F21C8F0B8F81E08C831E821F82EF
:101DE000188619861A861B861C861D861E861F86E7
:101DF000188A198A1A8ADF91CF911F910F9108953D
:101E00002F923F924F925F926F927F928F929F920A
:101E1000AF92BF92CF92DF92EF92FF920F931F93F8
:101E2000CF93DF93EC016B015A018D81811103C0C7
:101E30008FEF9FEFD7C08C8180FFFACF4B895C89F1
:101E40006D897E898A859B85AC85BD852501612C40
:101E5000712C8A019B01081B190B2A0B3B0B0415E3
:101E600015052605370518F45A01A81AB90A2501DF
:101E70001E0126E0220E311C4114510409F47AC0DF
:101E80004A855B856C857D854A0181E09822ED81DC
:101E90008A019B01F9E03695279517950795FA95E4
:101EA000D1F78B8D9C8DE23051F4FC01628D738DE6
:101EB000848D958D600F711F821F931F3DC0FC01A3
:101EC00074807A94702281149104C1F4711016C048
:101ED000452B462B472B49F48F89988DA98DBA8DB8
:101EE0008E839F83A887B98709C04E815F816885EB
:101EF00079859101FCD5882309F49ACFEB8DFC8D6F
:101F00006E817F8188859985625071098109910967
:101F1000058404C0660F771F881F991F0A94D2F7A3
:101F20000685178520893189600F711F821F931FD5
:101F3000670D711D811D911D20E032E028193909BE
:101F400032012415350508F439012C8126FD04C021
:101F50006114F2E07F0699F50091000310910103EE
:101F600020910203309103036017710782079307E2
:101F700019F425C0C50136C0760183019401AB0177
:101F8000BC018091780790917907FFDC882309F4E0
:101F90004FCFC60CD71C04C0E81BF90BCE0EDF1EBA
:101FA0008A859B85AC85BD85860D971DA11DB11DBC
:101FB0008A879B87AC87BD87461857085DCF40E06E
:101FC00038D5882309F434CFC4018658984FD601F8
:101FD0009C01260D371DFC01E217F307E9F2419140
:101FE0004D93FACFDF91CF911F910F91FF90EF901A
:101FF000DF90CF90BF90AF909F908F907F906F9029
:102000005F904F903F902F900895FF920F931F93F2
:10201000CF93DF931F92CDB7DEB78C01FC01858192
:10202000823018F480E090E033C0F8014285538597
:1020300064857585A5E07695679557954795AA952A
:10204000D1F7F42FFF70FF2E41E050E0BE016F5F2B
:102050007F4FC801D5DE019719F4298130E002C015
:102060002FEF3FEF2F3F3F4FE9F2F80142855385B5
:1020700064857585415E5F4F6F4F7F4F4287538701
:1020800064877587F0E2FF9EC00111248658984F3F
:102090000F90DF91CF911F910F91FF9008954F9274
:1020A0005F926F927F92AF92BF92CF92DF92EF9248
:1020B000FF920F931F93CF93DF93EC016A017B0193
:1020C0002D81222309F456C08B899C89AD89BE8954
:1020D00084179507A607B70708F44CC04DC08A853A
:1020E0009B85AC85BD85EB8DFC8DE585F0E0399653
:1020F000AC01BD0141505109610971090E2E04C0A6
:1021000076956795579547950A94D2F7970186017A
:10211000015011092109310904C0369527951795F9
:102120000795EA95D2F70417150726073707A8F58C
:102130008F89988DA98DBA8D8E839F83A887B98743
:10214000280139015E0186E0A80EB11C411451043A
:102150006104710459F14E815F816885798595012B
:102160008B8D9C8DC4D491E0491A51086108710887
:102170008111ECCF80E01FC02230C1F0C114D10426
:10218000E104F10409F0ABCF1E821F821886198684
:102190001A861B861C861D860DC0892B8A2B8B2BCD
:1021A00039F2041B150B260B370BCACFCA86DB8608
:1021B000EC86FD8681E0DF91CF911F910F91FF901A
:1021C000EF90DF90CF90BF90AF907F906F905F9037
:1021D0004F9008950F931F93CF93DF93EC018D8160
:1021E0008823B9F18C8187FF2FC061E0CE0169DDC2
:1021F0008C01009771F18D81823048F44B895C89A4
:102200006D897E89F801448F558F668F778F4F894E
:10221000588D698D7A8DF801538F428F758B648B41
:10222000E0917107F0917207309759F0B8016A5E3A
:102230007F4FC80148961995F801808D918D938B39
:10224000828B8C818F778C83DF91CF911F910F913F
:10225000B7C380E0DF91CF911F910F910895CF9385
:10226000DF93EC01B7DF882319F01D8281E001C004
:1022700080E0DF91CF9108954F925F926F927F92AD
:10228000AF92BF92CF92DF92EF92FF920F931F9384
:10229000CF93DF9300D01F92CDB7DEB75C016A0108
:1022A0007B01FC0185818130E9F4848181FF1AC0C2
:1022B000F50183899489A589B68984179507A607AE
:1022C000B70780F0892B8A2B8B2B09F472C0F5019C
:1022D0004284538464847584B701A601C501DFDE9E
:1022E000811102C080E066C0F501838D948DC11418
:1022F000D104E104F10469F44789508D618D728D38
:1023000094D6882379F3F501178A108E118E128ED8
:1023100037C0F50146815781608571859E012F5F29
:102320003F4FE5D38823F1F249815A816B817C814B
:10233000F501838D948DFC012789203129F408EF64
:102340001FEF20E030E004C008EF1FEF2FEF3FE069
:10235000401751076207730798F467D6882309F47A
:10236000C1CFF50146815781608571850FEF1FEF61
:102370002FEF3FE0838D948DA7D4882309F4B2CF4B
:10238000F501C38AD48AE58AF68A848180688483C9
:10239000C50120DF882309F4A5CFB701A6014C149D
:1023A0005D046E047F0410F4B301A201C50177DE61
:1023B00001C081E00F900F900F900F90DF91CF91AF
:1023C0001F910F91FF90EF90DF90CF90BF90AF9053
:1023D0007F906F905F904F900895FF920F931F939F
:1023E000CF93DF93EC01F42E80E2689FF00111247B
:1023F000E658F84F8385817129F0842F827411F09B
:1024000080E051C06A8B8091000390910103A091FC
:102410000203B09103038E879F87A88BB98B4489F1
:10242000558960E070E0BA0155274427028D138D6D
:1024300020E030E0402B512B622B732B4F8B588FB9
:10244000698F7A8F8385887151F4048D158D268D5F
:10245000378D0B8B1C8B2D8B3E8B81E00BC080311D
:1024600079F69E012D5E3F4F8B8D9C8DC3D38823C3
:1024700039F284E08D838F2D8F708C831E821F82B2
:10248000188619861A861B861C861D86F6FE0AC0CB
:1024900040E050E0BA01CE01DF91CF911F910F9142
:1024A000FF90EACE81E0DF91CF911F910F91FF90D5
:1024B0000895AF92BF92CF92DF92EF92FF920F9367
:1024C0001F93CF93DF93CDB7DEB72B970FB6F8945A
:1024D000DEBF0FBECDBF7C016B01CA01B22EF7017A
:1024E00025812111B3C0BE016F5F7F4F02DC8823BD
:1024F00009F4ACC0F601838D948DF701948F838F1E
:10250000F6011682178210861186128613861486AB
:102510001586A12CF60102851385248535858389CE
:102520009489A589B689081719072A073B07E0F59A
:1025300045E036952795179507954A95D1F70F7081
:10254000C60163DD009709F481C0FC0120812223CC
:1025500011F0253EB9F4A1100EC0F701028B409195
:1025600000035091010360910203709103034687B9
:102570005787608B718BFC018081AA24A394811101
:10258000C9CF12C04BE050E0BC01CE0101960E94C1
:10259000B02C892B09F0BECF8B2D8073803309F4CA
:1025A00055C04B2D602F4FC08B2D8271823109F0A9
:1025B0004DC0AA2039F061E0C70183DB8C01009790
:1025C00071F444C0F6018581823009F43FC0C60130
:1025D00019DB8823D9F1F701128A0AE717E080E2B4
:1025E000F80111928A95E9F78BE0FE013196D80146
:1025F00001900D928A95E1F7E0917107F0917207D1
:10260000309739F0B801625F7F4FC8014096199545
:1026100009C081E298E2F801918B808B80E098E01C
:1026200097878687F80180899189938B828B918F18
:10263000808F86859785978B868BC2D1882331F0D2
:102640004B2DF7016289C701C8DE01C080E02B96DF
:102650000FB6F894DEBF0FBECDBFDF91CF911F91B3
:102660000F91FF90EF90DF90CF90BF90AF900895C3
:102670002F923F924F925F926F927F928F929F9292
:10268000AF92BF92CF92DF92EF92FF920F931F9380
:10269000CF93DF9300D01F921F92CDB7DEB78C018E
:1026A0007B013A01DC0115968C9115978130C1F4BC
:1026B00014968C9181FF14C082FF1AC0F8014389DF
:1026C00054896589768982859385A485B585841723
:1026D0009507A607B70761F0C801E1DC811108C0C2
:1026E00081E090E0F8019383828380E090E040C134
:1026F00063017FC0D8015B968D919C915C97FC0132
:10270000F481F150B501A40129E0769567955795BC
:1027100047952A95D1F7F423FD8321E09222FF23E8
:1027200009F473C080E092E08819990956018C156C
:102730009D0508F45C01D8015B96ED91FC915C97D6
:1027400016962D903D904D905C901997B2E02B1A03
:10275000310841085108058404C0220C331C441C74
:10276000551C0A94D2F786859785A089B189280ED1
:10277000391E4A1E5B1EED812E0E311C411C511C60
:10278000A114F2E0BF0609F085C08091000390918A
:102790000103A0910203B091030382159305A405E0
:1027A000B50559F48FEF9FEFDC0180930003909300
:1027B0000103A0930203B09303039701B201A101A7
:1027C0008091780790917907A6D9882309F488CF5A
:1027D0009EEFF91ACA18DB08F80182859385A48553
:1027E000B5858A0D9B1DA11DB11D82879387A48786
:1027F000B587D8011A968D909D90AD90BC901D978D
:10280000C114D10409F076CF86C08114910409F077
:1028100089CF16964D915D916D917C9119974115D7
:1028200051056105710559F457968D919D910D9053
:10283000BC91A02D0097A105B10531F520C09E01E6
:102840002F5F3F4F54D1882309F450CF89819A815B
:10285000AB81BC81F801238D348DF90127892031AA
:1028600029F448EF5FEF60E070E004C048EF5FEFED
:102870006FEF7FE084179507A607B70728F0C80118
:1028800097D981114FCF2CCFF80186839783A087EA
:10289000B18748CF8114910421F5D8011A964D9142
:1028A0005D916D917C911D9753968D919D910D90A9
:1028B000BC91A02D481759076A077B0790F080D07C
:1028C000882309F40DCF2092000330920103409237
:1028D000020350920303809177078160809377070A
:1028E00007C041E0C201B101A4D0882309F4F8CEA9
:1028F000C4018658984FD7019C012A0D3B1DFC014D
:10290000E217F30719F04D914193FACFE81BF90B49
:10291000EE0EFF1E5FCF53968D919D910D90BC9151
:10292000A02DF801248188159905AA05BB0538F466
:10293000838A948AA58AB68A206824830CC08091F1
:10294000710790917207892B31F06114710419F0AD
:102950002068F8012483D80114968C9183FD02C06D
:10296000C30106C0C80136DC882309F4B9CEF8CF0C
:102970000F900F900F900F900F90DF91CF911F91BC
:102980000F91FF90EF90DF90CF90BF90AF909F900E
:102990008F907F906F905F904F903F902F90089511
:1029A000CF93DF931F92CDB7DEB7698341E050E04C
:1029B000BE016F5F7F4F5CDE0F90DF91CF91089576
:1029C00080917707882389F140910003509101039A
:1029D00060910203709103032AE737E08091780742
:1029E0009091790798D8882311F1409173075091FD
:1029F000740760917507709176074115510561055F
:102A0000710589F02AE737E080917807909179077E
:102A100082D8882361F01092730710927407109285
:102A20007507109276071092770781E0089580E08D
:102A30000895CF92DF92EF92FF92CF936B017C01CA
:102A4000C42F8091000390910103A0910203B091E3
:102A500003038C159D05AE05BF05C1F0B1DF8111E3
:102A600002C080E019C02AE737E0B701A6018091D3
:102A700078079091790702D8882399F3C0920003D0
:102A8000D0920103E0920203F09203038091770752
:102A90008C2B8093770781E0CF91FF90EF90DF90B0
:102AA000CF900895CF92DF92EF92FF926B017C015D
:102AB00087DF8823B1F0EAE7F7E0119289E0EA378F
:102AC000F807D9F7C0920003D0920103E092020305
:102AD000F09203038091770781608093770781E00C
:102AE00001C080E0FF90EF90DF90CF9008958F922B
:102AF0009F92AF92BF92CF92DF92EF92FF920F938D
:102B00001F93CF93DF938C016A017B01E901FC01E4
:102B100081859285A385B4850196A11DB11D841779
:102B20009507A607B70710F480E057C0F80143895E
:102B30005489658976898789803129F4BB27AF2D2F
:102B40009E2D8D2D09C0D701C60127E0B695A7950A
:102B5000979587952A95D1F74C015D01840E951EB6
:102B6000A61EB71EC501B40180900003909001031A
:102B7000A0900203B0900303681579058A059B05B0
:102B800089F4F8018789803191F4DD24EE24FF2453
:102B9000F601EE0FFF1FE658F84F80819181A0E00B
:102BA000B0E016C040E045DF8111EBCFBDCFE89427
:102BB000C7F8DD24EE24FF24F601EE0FFF1FEE0F11
:102BC000FF1FE658F84F80819181A281B381BF70C9
:102BD00088839983AA83BB8381E0DF91CF911F9182
:102BE0000F91FF90EF90DF90CF90BF90AF909F90AC
:102BF0008F9008954F925F926F927F92AF92BF92A3
:102C0000CF92DF92EF92FF920F931F93CF93DF93B8
:102C100000D01F92CDB7DEB78C0149835A836B83F6
:102C20007C835901C12CD12C7601412C42E0542ED9
:102C3000612C712C49815A816B817C819E012F5FAF
:102C40003F4FC80154DF882359F1D301C201F80175
:102C5000058404C0880F991FAA1FBB1F0A94D2F7CE
:102C6000C80ED91EEA1EFB1E49815A816B817C81E8
:102C70008789803129F488EF9FEFA0E0B0E004C09D
:102C800088EF9FEFAFEFBFE0481759076A077B0750
:102C900088F2F501C082D182E282F38281E001C034
:102CA00080E00F900F900F900F90DF91CF911F91C8
:102CB0000F91FF90EF90DF90CF90BF90AF907F90FB
:102CC0006F905F904F9008954F925F926F927F92B6
:102CD0008F929F92AF92BF92CF92DF92EF92FF922C
:102CE0000F931F93CF93DF93EC016A017B012801BF
:102CF0003901423051056105710508F473C04985F9
:102D00005A856B857C854F5F5F4F6F4F7F4F4C15AA
:102D10005D056E057F0508F465C08B889C88AD88CD
:102D2000BE888F89803129F477276F2D5E2D4D2D38
:102D300009C0B701A601E7E07695679557954795D5
:102D4000EA95D1F7840E951EA61EB71E409100038A
:102D5000509101036091020370910303841695065C
:102D6000A606B70671F48F89803191F4DD24EE2434
:102D7000FF24F601EE0FFF1FE658F84F5182408204
:102D800017C040E0C501B40154DE8111ECCF2AC068
:102D9000E894C7F8DD24EE24FF24F601EE0FFF1FB0
:102DA000EE0FFF1FE658F84F408251826282738215
:102DB000809177078160809377078A89823080F0DD
:102DC0008D819E81AF81B885880D991DAA1DBB1D7F
:102DD0008093730790937407A0937507B093760759
:102DE00081E001C080E0DF91CF911F910F91FF90B2
:102DF000EF90DF90CF90BF90AF909F908F907F909B
:102E00006F905F904F9008952F923F924F925F92F4
:102E10006F927F929F92AF92BF92CF92DF92EF928A
:102E2000FF920F931F93CF93DF93CDB7DEB76097D9
:102E30000FB6F894DEBF0FBECDBF5C014D875E8735
:102E40006F87788B1901D9014D905D906D907C90C2
:102E5000411451046104710431F0BFEF4B1A5B0A55
:102E60006B0A7B0A10C0FC01408051806280738035
:102E7000992493940D851E852F853889013011057D
:102E80002105310509F0912CD50119962D913D911F
:102E90004D915C911C972F5F3F4F4F4F5F4F29879C
:102EA0003A874B875C87730162011D821E821F82F5
:102EB0001886F50181859285A385B4850D811E81D3
:102EC0002F813885081719072A073B0708F054C0D7
:102ED00029853A854B855C852C153D054E055F059A
:102EE00050F4A2E0CA2ED12CE12CF12CB2E04B2EF2
:102EF000512C612C712C9E012F5F3F4FB701A60111
:102F0000C501F5DD8823C1F149815A816B817C813E
:102F1000D701C6010196A11DB11D452B462B472B9C
:102F200019F02C013D010FC0AC01BD014419550938
:102F3000660977090D851E852F8538894017510749
:102F40006207730779F02D813E814F8158852F5F8D
:102F50003F4F4F4F5F4F2D833E834F8358876C0108
:102F60007D01A7CF0FEF1FEF2FEF3FE0B701A601C5
:102F7000C501AADE811117C080E03FC0D701C6019C
:102F80000197A109B1098D839E83AF83B88797010B
:102F90008601AC01BD01C50197DE882369F3CD80B0
:102FA000DE80EF80F8844C145D046E047F0430F3FF
:102FB000D1014D915D916D917C9141155105610556
:102FC000710599F4F10140825182628273829920E5
:102FD00099F0FFEF4F1A5F0A6F0A7F0AD5014D92F1
:102FE0005D926D927C92139707C093018201C50197
:102FF0006BDE8111E7CFC0CF81E060960FB6F89409
:10300000DEBF0FBECDBFDF91CF911F910F91FF901B
:10301000EF90DF90CF90BF90AF909F907F906F9098
:103020005F904F903F902F900895AF92BF92CF92B4
:10303000DF92EF92FF920F931F93CF93DF9300D015
:103040001F92CDB7DEB75C016A017B0182E090E0A0
:10305000A0E0B0E0F50180839183A283B3839E0159
:103060002F5F3F4FB701A601C50141DD882309F15C
:1030700000E010E09801B701A601C50125DE882314
:10308000C1F0C980DA80EB80FC80F501878980314E
:1030900029F488EF9FEFA0E0B0E004C088EF9FEF35
:1030A000AFEFBFE0C816D906EA06FB06C0F281E022
:1030B00001C080E00F900F900F900F90DF91CF91A3
:1030C0001F910F91FF90EF90DF90CF90BF90AF9046
:1030D00008958F929F92AF92BF92CF92DF92EF921C
:1030E000FF920F931F93CF93DF93EC01142F7093F4
:1030F000790760937807442339F1453010F080E078
:10310000EDC040E060E070E0CB0193DC8823B9F3D0
:1031100020E1129FF0011124E85DF64F80818F7746
:1031200071F784859585A685B78584369105A105B7
:10313000B10528F3C084D184E284F384C114D1049E
:10314000E104F10421F4DBCFC12CD12C760140E065
:10315000C701B6016EDC882391F2809185079091BA
:1031600086078115924059F630918A07332339F248
:103170008091880790918907892B09F4C0CF20910D
:103180008707222309F4BBCF3A8B2C831D8630E0BE
:1031900041E050E06D85062FCA01062E02C0880F5F
:1031A000991F0A94E2F72817390731F081E0860F5A
:1031B0008D87683078F3A3CF2091900730919107E5
:1031C0002115310519F040E050E008C020919E071C
:1031D00030919F074091A0075091A1072D833E8316
:1031E0004F8358878091880790918907460157013E
:1031F000880E991EA11CB11C8B8A9C8AAD8ABE8A3E
:10320000E0918B07F0918C07F98FE88FA0918A07E6
:10321000B0E00E94652B680D791D8A1D9B1D6A8F89
:103220007B8F8C8F9D8F15E0EE0FFF1F1A95E1F7B6
:10323000E150FE4FEF2FFF27E695DC01CB018E0F0B
:103240009F1FA11DB11D8E879F87A88BB98B809072
:103250008D0790908E078114910419F0A12CB12C48
:1032600008C080909A0790909B07A0909C07B09010
:103270009D07A7019601281B390B4A0B5B0BDA014E
:10328000C901880D991DAA1DBB1D04C0B695A7953F
:10329000979587950A95D2F789879A87AB87BC87D8
:1032A000853F3FE09307A105B10510F48CE014C001
:1032B000853F9F4FA105B10510F480E10DC08091BD
:1032C000A6079091A707A091A807B091A9078A8F98
:1032D0009B8FAC8FBD8F80E28F8B81E0DF91CF9190
:1032E0001F910F91FF90EF90DF90CF90BF90AF9024
:1032F0009F908F900895FC01658B08952DE734E031
:10330000FC013183208308952DE734E0FC013183F3
:1033100020830C9470270F931F93CF93DF938C011E
:10332000EB0188E2FB0111928A95E9F74BE050E04E
:1033300061EB74E0CE010E94C82C1B8641E050E096
:1033400060E070E04C875D876E877F87F801418978
:10335000528963897489488B598B6A8B7B8B42E0D5
:1033600050E060E070E04C8B5D8B6E8B7F8B1CA21D
:103370001DA21EA21FA2188E198E1A8E1B8E1C8EC5
:103380001D8E1E8E1F8E18A219A21AA21BA2DF91DB
:10339000CF911F910F910895DC01ED91FC91019067
:1033A000F081E02D1994FC018CEB94E091838083F3
:1033B000418B528B638B748B158A0895CF93DF9367
:1033C0001F921F92CDB7DEB781E696E02A8349832C
:1033D0000E9426054981642F81E696E00E94DF0461
:1033E0002A81622F81E696E00E94DF0481E696E062
:1033F0000F900F90DF91CF910C94A1050F931F9325
:10340000CF93DF938C01EB01262F41E06EE1D6DFF5
:10341000F801D483C383C038D10509F45BC0DCF460
:10342000C034D105A9F1C036D10509F442C0A09736
:1034300009F08AC080E090E8A9E8B4E4809308032A
:1034400090930903A0930A03B0930B0380E090E0EC
:10345000A5E7B4E471C0C03CD10509F44CC0C03E3E
:10346000D10509F459C0C03AD10509F06DC080E01A
:1034700090E0A8ECB3E48093080390930903A09331
:103480000A03B0930B0380E090E8A1EBB3E454C0CF
:1034900080E090ECA5E5B4E48093080390930903E1
:1034A000A0930A03B0930B0380E090E0AEE3B4E492
:1034B00043C080E090E8A7E2B4E4809308039093CF
:1034C0000903A0930A03B0930B0380E090E0A6E108
:1034D000B4E432C080E090E0A1EEB3E4809308034E
:1034E00090930903A0930A03B0930B0380E090E04C
:1034F000A8ECB3E421C080E090E0A5EAB3E48093B7
:10350000080390930903A0930A03B0930B0380E090
:1035100090E8A3E9B3E410C080E090E0A6E6B3E44D
:103520008093080390930903A0930A03B0930B03BD
:1035300080E090E0ADE4B3E480930403909305034E
:10354000A0930603B0930703DF91CF911F910F91D2
:1035500008951F93CF93DF931F92CDB7DEB7162F39
:1035600081E696E049830E9426054981642F81E621
:1035700096E00E94DF0481E696E00E94A10541E00A
:10358000612F81E696E00E949F0581E696E00E9409
:103590009004182F81E696E00E94A105812F0F90DC
:1035A000DF91CF911F910895CF93DF93EC0181E6D6
:1035B00096E00E941D0520E042E06EE1CE01FEDEB5
:1035C00040E06EE1CE01C5DF803131F460E270E0B1
:1035D000CE0114DF81E001C080E0DF91CF9108953A
:1035E0006F927F928F929F92AF92BF92CF92DF9213
:1035F000EF92FF920F931F93CF93DF93EC016EE155
:1036000081E696E00E94260563E070E081E696E0A0
:10361000C3DE81E696E00E94A10546E06EE181E608
:1036200096E00E949F0581E696E00E948804069736
:10363000D4F381E696E00E949004682E81E696E03D
:103640000E949004782E81E696E00E949004C82E95
:1036500081E696E00E949004D82E81E696E00E94D2
:103660009004882E81E696E00E949004982EB62C55
:10367000A12CA728B501882777FD8095982F0E9457
:10368000DB296D837E838F839887F82CE12CE928D2
:10369000B701882777FD8095982F0E94DB296987DD
:1036A0007A878B879C871C2D00E00D29B80188271D
:1036B00077FD8095982F0E94DB296D877E878F8705
:1036C000988BDF91CF911F910F91FF90EF90DF903A
:1036D000CF90BF90AF909F908F907F906F90089504
:1036E0002F923F924F925F926F927F928F929F9212
:1036F000AF92BF92CF92DF92EF92FF920F931F9300
:10370000CF93DF93EC018B0184E2FB0111928A9548
:10371000E9F749E06EE1CE011CDF80FFF0C0CE0189
:103720005FDF8D89882309F482C04D805E806F80C1
:10373000788489849A84AB84BC84CD84DE84EF84CD
:10374000F8882224239420E030E04FEF54ECC301AA
:10375000B2010E943C2918160CF4212C3324339416
:1037600020E030E04FEF54E4C301B2010E94B02AE0
:1037700087FD312C32286624639420E030E04FEF3F
:1037800054E4C501B4010E94B02A87FD612C63286E
:103790007724739420E030E04FEF54ECC501B4017E
:1037A0000E943C2918160CF4712C7628BB24B39483
:1037B00020E030E04FEF54E4C701B6010E94B02A88
:1037C00087FDB12C7B2851F420E030E04FEF54EC22
:1037D000C701B6010E943C2918164CF18B819C81CF
:1037E00080369105E1F04CF480329105D9F08034B7
:1037F0009105E9F460E670E017C0803A910561F048
:10380000803C910531F08038910589F460EA70E0E0
:103810000BC060EE70E008C060EC70E005C060E8CE
:1038200070E002C060E470E0CE01E8DD72CF84E2B7
:1038300090E0A0E0B0E0F80180839183A283B3839D
:1038400089899A89AB89BC8984839583A683B78348
:1038500082E090E0A0E0B0E080879187A287B38704
:103860008ED5F801608B718B828B938BC09008038F
:10387000D0900903E0900A03F0900B03A701960192
:103880006D817E818F8198850E94402920E030E003
:1038900048EC52E40E94BB2AF801648B758B868B3E
:1038A000978BA701960169857A858B859C850E94F7
:1038B000402920E030E048EC52E40E94BB2AF801A5
:1038C000608F718F828F938F209104033091050355
:1038D00040910603509107036D857E858F859889F9
:1038E0000E94402920E030E048EC52E40E94BB2ACC
:1038F000F801648F758F868F978F81E001C080E01B
:10390000DF91CF911F910F91FF90EF90DF90CF90BB
:10391000BF90AF909F908F907F906F905F904F90EF
:103920003F902F900895FC0120812432A1F521E0E1
:1039300030E040E050E0FC01E20FF31F6081F9014C
:1039400031966A32F1F4BA01A4E075956795AA95AB
:10395000E1F7E80FF91F6A30710514F0695C01C0E6
:10396000605D60834F705527F9013296E80FF91FAB
:103970004A30510514F0495C01C0405D408381E04C
:103980000895262F332727FD3095422753279F017F
:10399000E437F10581F680E00895CF93DF93EC01E1
:1039A0006C817D818E819F816C5C7241854B984FCB
:1039B0000E94DB2920E034E244E759E40E944029D8
:1039C00025E33AEF4EE85CE30E94BB2A27E13DE89D
:1039D0004CE25FE30E94BB2A2FED3EED4DEB5FE42E
:1039E0000E94BB2A0E94A829688779878A879B87BB
:1039F000688179818A819B81645B744A864D92409B
:103A00000E94DB2920E034E244E759E40E94402987
:103A100025E33AEF4EE85CE30E94BB2A2FED3EED32
:103A20004DEB5FE40E94BB2A0E94A8296C877D872A
:103A30008E879F87DF91CF9108952F923F924F926B
:103A40005F926F927F928F929F92AF92BF92CF922E
:103A5000DF92EF92FF920F931F93CF93DF93CDB737
:103A6000DEB72C970FB6F894DEBF0FBECDBF7C013A
:103A7000FC0180849184A284B384B7FC03C0C50197
:103A8000B40107C066277727CB01681979098A092D
:103A90009B0928EE33E040E050E00E94432B69830D
:103AA0007A838B839C83F70144845584668477846E
:103AB00077FC03C0C301B20107C066277727CB019B
:103AC000641975098609970928EE33E040E050E053
:103AD0000E94432B1B018C01F701648D758D868D2F
:103AE000978D24893589468957892D833E834F8355
:103AF0005887208931894289538929873A874B879A
:103B00005C8721A12F9320A12F93238D2F93228DAA
:103B10002F93218D2F93208D2F93B8EECB2EB3E0D2
:103B2000DB2EE12CF12CA70196010E94432B9F93E1
:103B30008F937F936F935F934F933F932F936D81F9
:103B40007E818F819885A70196010E94212B9F93EA
:103B50008F937F936F935F934F933F932F936985D9
:103B60007A858B859C85A70196010E94432B9F93A4
:103B70008F937F936F935F934F933F932F931F93F5
:103B80000F933F922F92C301B201A70196010E94A9
:103B9000432B5F934F933F932F93FC81FF932B8194
:103BA0002F933A813F9349814F93C501B401A701F7
:103BB00096010E94432B5F934F933F932F9386EC84
:103BC00094E09F938F938BE799E09F938F930E944C
:103BD000F12C0FB6F894DEBF0FBECDBF8BE799E096
:103BE0002C960FB6F894DEBF0FBECDBFDF91CF91FC
:103BF0001F910F91FF90EF90DF90CF90BF90AF900B
:103C00009F908F907F906F905F904F903F902F90FC
:103C10000895FC01DB014D915D916D917C911397AD
:103C2000408351836283738314964D915D916D91AE
:103C30007C911797448355836683778318964D91BB
:103C40005D916D917C911B97408751876287738747
:103C50001C964D915D916D917C911F97448755877E
:103C60006687778750964D915D916D917C915397C2
:103C7000408B518B628B738B54964D915D916D91FE
:103C80007C915797448B558B668B778B58968D918B
:103C90009C915997918F808F5A968D919C915B97AB
:103CA000938F828F5C964D915D916D917C915F9722
:103CB000448F558F668F778F90968D919C919197B9
:103CC00091A380A30895FF920F931F93CF93DF9347
:103CD0008C0180917A09882309F442C0F12C0230CA
:103CE000110569F00330110589F001301105A9F4BF
:103CF00081E19BE0D0D4EC0181E19BE014C08EEA2D
:103D00009BE0C9D4EC018EEA9BE00DC08BE49CE003
:103D1000C2D4EC018BE49CE006C084E79AE0BBD4FB
:103D2000EC0184E79AE0D0D4F11002C02E97C4F0E1
:103D30008F3FA9F28A3099F22F2D332727FD309536
:103D400097E7F901ED50F64FF91611F08D3029F48F
:103D5000108210927A0981E004C08083F394BFCF6F
:103D600080E0DF91CF911F910F91FF900895CF9345
:103D7000DF93EC01CB01BE010E94D72C009749F0E4
:103D8000FE0101900020E9F73197EC1BFD0B8E0F2F
:103D90009F1FDF91CF9108950F931F93CF93DF93D0
:103DA00061157105B1F0E3DF8C01009791F06DE7CB
:103DB00070E00E94BD2CEC01009759F01882C801F8
:103DC0000E94AD2C2DE72883562F472F382F292FFF
:103DD00004C050E040E030E02FE4652F742F832FC3
:103DE000922FDF91CF911F910F910895CF92DF9283
:103DF000FF920F931F93CF93DF93EA010FEF1FEF13
:103E00002FEF3FE70E8B1F8B288F398F0A8B1B8B71
:103E10002C8B3D8B61157105C9F1A9DF8C010097D1
:103E2000A9F16CE270E00E94BD2C6C01009771F169
:103E3000FC011082C8010E94AD2C0E94A8296A8B47
:103E40007B8B8C8B9D8B8CE2F82EF601F1926F01AF
:103E5000CF010E94AD2C0E94A8296E8B7F8B888F8A
:103E6000998F6DE770E0C6010E94BD2C8C01009710
:103E700069F0FC011082C6010E94AD2C0E94A829A5
:103E80006E8B7F8B888F998FF801F082DF91CF91B5
:103E90001F910F91FF90DF90CF900895FC01118248
:103EA00010824FEF5FEF6FEF7FE7428353836483AE
:103EB00075834683578360877187428753876487FA
:103EC000758746875787608B718B428B538B648BCA
:103ED000758B468B578B608F718F428F538F648F9A
:103EE000758F0895AF92BF92CF92DF92EF92FF92BB
:103EF0000F931F93CF93DF938C01EB01BC018DE4F3
:103F000095E035DF5C01009709F469C0BC0184E5E8
:103F100095E042DF6B017C0120E030E040E05FE4AF
:103F20000E943C29882361F0C701B6010E94A8299C
:103F30006E837F838887998782E090E09983888366
:103F4000B5018AE595E028DF6B017C0120E030E0D7
:103F500040E05FE40E943C29882361F0C701B6017C
:103F60000E94A8296A877B878C879D8782E090E0E2
:103F700099838883B5018EE595E00EDF6B017C01A6
:103F800020E030E040E05FE40E943C29882361F0BB
:103F9000C701B6010E94A8296E877F87888B998BFD
:103FA00082E090E099838883AE01B50181E695E0D7
:103FB0001DDF8E899F89A88DB98D8F3F9F4FAF4F91
:103FC000BF4769F08A899B89AC89BD898F3F9F4F24
:103FD000AF4FBF4721F082E090E099838883B8011A
:103FE00085E695E0C4DE5C010097A1F1BC0184E5A3
:103FF00095E0D2DE6B017C0120E030E040E05FE440
:104000000E943C29882361F0C701B6010E94A829BB
:104010006E837F838887998781E090E09983888386
:10402000B5018AE595E0B8DE6B017C0120E030E067
:1040300040E05FE40E943C29882361F0C701B6019B
:104040000E94A8296A877B878C879D8781E090E002
:1040500099838883B8018BE695E089DE5C0100973F
:1040600009F45DC0BC0180E795E096DE6B017C0140
:1040700020E030E040E05FE40E943C29882341F0EA
:10408000C701B6010E94A8296A837B838C839D8324
:10409000AE01B50181E695E0A9DEB5018EE595E0BA
:1040A0007BDE6B017C0120E030E040E05FE40E94B9
:1040B0003C29882341F0C701B6010E94A8296E87D8
:1040C0007F87888B998BB50184E795E065DE6B016E
:1040D0007C0120E030E040E05FE40E943C2988233E
:1040E00041F0C701B6010E94A8296A8F7B8F8C8F8F
:1040F0009D8F8E899F89A88DB98D8F3F9F4FAF4F20
:10410000BF4769F08A899B89AC89BD898F3F9F4FE2
:10411000AF4FBF4721F083E090E099838883B801D7
:1041200089E795E024DE8C01009709F466C0BC01A4
:1041300080E795E031DE6B017C0120E030E040E07B
:104140005FE40E943C29882341F0C701B6010E9428
:10415000A8296A837B838C839D83B80184E595E0DD
:104160001BDE6B017C0120E030E040E05FE40E9458
:104170003C29882341F0C701B6010E94A8296E831B
:104180007F8388879987B8018EE595E005DE6B010E
:104190007C0120E030E040E05FE40E943C2988237D
:1041A00041F0C701B6010E94A8296E877F87888BDE
:1041B000998BAE01B80181E695E018DE8E899F8962
:1041C000A88DB98D8F3F9F4FAF4FBF47B1F08A8900
:1041D0009B89AC89BD898F3F9F4FAF4FBF4769F027
:1041E0008A819B81AC81BD818F3F9F4FAF4FBF477D
:1041F00021F084E090E099838883DF91CF911F9133
:104200000F91FF90EF90DF90CF90BF90AF90089507
:10421000AF92BF92CF92DF92EF92FF920F931F93D4
:10422000CF93DF93CDB7DEB7C054D1090FB6F89462
:10423000DEBF0FBECDBF8C016B01CB012FDEE12CA9
:10424000F12C5E0181E4A80EB11CD801ED91FC9126
:104250000480F581E02DC8011995181619069CF502
:10426000D801ED91FC910680F781E02DC8011995E8
:10427000E1E0F0E0EC0FFD1FEE0DFF1D80839701E4
:104280002F5F3F4FE1E0F0E0EC0FFD1FE20FF31F67
:104290001082882349F08A30910531F00D9721F082
:1042A000BFE3EB16F1046CF0B601CE0101961ADE05
:1042B000FE0131961192EA15FB05E1F7198220E023
:1042C00030E07901C2CFC05CDF4F0FB6F894DEBF9B
:1042D0000FBECDBFDF91CF911F910F91FF90EF9057
:1042E000DF90CF90BF90AF9008951F920F920FB6BE
:1042F0000F9211242F933F938F939F93AF93BF936C
:1043000080916C0A90916D0AA0916E0AB0916F0A2B
:1043100030916B0A23E0230F2D3720F40196A11D65
:10432000B11D05C026E8230F0296A11DB11D2093E3
:104330006B0A80936C0A90936D0AA0936E0AB093F7
:104340006F0A8091700A9091710AA091720AB091DF
:10435000730A0196A11DB11D8093700A9093710A92
:10436000A093720AB093730ABF91AF919F918F91FE
:104370003F912F910F900FBE0F901F9018952FB760
:10438000F89460916C0A70916D0A80916E0A909118
:104390006F0A2FBF08953FB7F8948091700A9091EB
:1043A000710AA091720AB091730A26B5A89B05C044
:1043B0002F3F19F00196A11DB11D3FBF6627782F31
:1043C000892F9A2F620F711D811D911D42E0660F8A
:1043D000771F881F991F4A95D1F708958F929F9252
:1043E000AF92BF92CF92DF92EF92FF926B017C016E
:1043F000D2DF4B015C01C114D104E104F104E1F00E
:1044000073D6C9DF681979098A099B09683E734028
:104410008105910580F321E0C21AD108E108F10875
:1044200088EE880E83E0981EA11CB11CC114D10433
:10443000E104F10431F7DFCFFF90EF90DF90CF90F0
:10444000BF90AF909F908F900895789484B58260CC
:1044500084BD84B5816084BD85B5826085BD85B528
:10446000816085BDEEE6F0E0808181608083E1E8D7
:10447000F0E010828081826080838081816080830F
:10448000E0E8F0E0808181608083E1EBF0E0808112
:1044900084608083E0EBF0E0808181608083E1E9EB
:1044A000F0E0808182608083808181608083E0E9A8
:1044B000F0E0808181608083E1EAF0E080818260C9
:1044C0008083808181608083E0EAF0E08081816088
:1044D0008083E1E2F1E0808182608083808181607D
:1044E0008083E0E2F1E0808181608083EAE7F0E0B0
:1044F000808184608083808182608083808181600C
:1045000080838081806880831092C100089590E04C
:10451000FC013197E231F10508F04CC0EE58FF4F35
:104520000C945F2B809180008F7703C08091800076
:104530008F7D80938000089580918000877FF9CFE0
:1045400084B58F7702C084B58F7D84BD0895809136
:10455000B0008F7703C08091B0008F7D8093B00052
:104560000895809190008F7707C0809190008F7D93
:1045700003C080919000877F809390000895809180
:10458000A0008F7707C08091A0008F7D03C080912D
:10459000A000877F8093A0000895809120018F77ED
:1045A00007C0809120018F7D03C080912001877F0B
:1045B000809320010895CF93DF9390E0FC01E457AE
:1045C000FE4F2491FC01EE52FE4F8491882349F165
:1045D00090E0880F991FFC01EE5CFD4FA591B4910E
:1045E000885E9D4FFC01C591D4919FB7611108C0B1
:1045F000F8948C91209582238C93888182230AC021
:10460000623051F4F8948C91322F309583238C933F
:104610008881822B888304C0F8948C91822B8C93A0
:104620009FBFDF91CF9108950F931F93CF93DF9397
:104630001F92CDB7DEB7282F30E0F901EA5BFE4FBD
:104640008491F901E457FE4F1491F901EE52FE4FA7
:1046500004910023C1F0882319F0698358DF698130
:10466000E02FF0E0EE0FFF1FE85EFD4FA591B49143
:104670009FB7F8948C91611103C01095812301C0FC
:10468000812B8C939FBF0F90DF91CF911F910F9142
:1046900008950E94A92CFC01818D228D90E0805C00
:1046A0009F4F821B91098F7399270895FC01918D6B
:1046B000828D981731F0828DE80FF11D858D90E085
:1046C00008958FEF9FEF0895FC01918D828D9817CB
:1046D00061F0828DDF01A80FB11D5D968C91928DE6
:1046E0009F5F9F73928F90E008958FEF9FEF0895E3
:1046F00086E195E2892B39F080E090E0892B19F072
:1047000095D1811122C081EC95E2892B39F080E0AE
:1047100090E0892B19F035D281111AC08CE696E20F
:10472000892B39F080E090E0892B19F0D5D28111E6
:1047300012C087E197E2892B99F080E090E0892B05
:1047400079F075D381110AC008950E940000DBCF73
:104750000E940000E3CF0E940000EBCF0C94000009
:104760000895FC01848DDF01A80FB11DA35ABF4F2E
:104770002C91848D90E001968F739927848FA68960
:10478000B7892C93A089B1898C9180648C93938D87
:10479000848D981306C00288F389E02D80818F7D77
:1047A00080830895CF93DF93EC01888D8823C1F037
:1047B000EA89FB89808185FD05C0A889B9898C912A
:1047C00086FD0EC00FB607FCF5CF808185FFF2CFC6
:1047D000A889B9898C9185FFEDCFCE01C2DFE8CFE2
:1047E000DF91CF910895CF92DF92FF920F931F93A5
:1047F000CF93DF931F92CDB7DEB76C0181E0D60176
:1048000058968C9358975B969C915B975C968C918D
:104810005C97981307C05096ED91FC915197808159
:1048200085FD2DC0F601038D10E00F5F1F4F0F7344
:104830001127F02EF601848DF81210C00FB607FC78
:10484000F9CFD6015096ED91FC915197808185FF6B
:10485000F1CFC601698385DF6981ECCF838DE80FD5
:10486000F11DE35AFF4F6083D6015B960C935B9773
:104870005296ED91FC915397808180620CC0D601D5
:104880005696ED91FC91579760835096ED91FC916F
:10489000519780818064808381E090E00F90DF9168
:1048A000CF911F910F91FF90DF90CF900895BF920D
:1048B000CF92DF92EF92FF92CF93DF93EC016A01E8
:1048C0007B01B22EE889F98982E08083411581EE6F
:1048D00058076105710599F060E079E08DE390E09B
:1048E000A7019601AED621503109410951095695CB
:1048F000479537952795211580E1380790F0E8898D
:10490000F989108260E874E88EE190E0A7019601D1
:1049100098D6215031094109510956954795379547
:104920002795EC85FD853083EE85FF852083188EE5
:10493000EC89FD89B082EA89FB898081806180836E
:10494000EA89FB89808188608083EA89FB8980818C
:1049500080688083EA89FB8980818F7D8083DF91F5
:10496000CF91FF90EF90DF90CF90BF9008951F926E
:104970000F920FB60F9211240BB60F922F938F93B5
:104980009F93EF93FF93E091840AF091850A8081D1
:10499000E0918A0AF0918B0A82FD12C09081809189
:1049A0008D0A8F5F8F7320918E0A821751F0E091EC
:1049B0008D0AF0E0EC58F54F958F80938D0A01C079
:1049C0008081FF91EF919F918F912F910F900BBE5E
:1049D0000F900FBE0F901F9018951F920F920FB659
:1049E0000F9211240BB60F922F933F934F935F9327
:1049F0006F937F938F939F93AF93BF93EF93FF93A7
:104A000084E79AE0AEDEFF91EF91BF91AF919F9165
:104A10008F917F916F915F914F913F912F910F9067
:104A20000BBE0F900FBE0F901F90189584E79AE071
:104A300032DE21E0892B09F420E0822F08951092C4
:104A4000770A1092760A88EE93E0A0E0B0E08093B7
:104A5000780A9093790AA0937A0AB0937B0A8FEA36
:104A600095E09093750A8093740A85EC90E090939A
:104A7000810A8093800A84EC90E09093830A80936B
:104A8000820A80EC90E09093850A8093840A81ECFE
:104A900090E09093870A8093860A82EC90E090934E
:104AA000890A8093880A86EC90E090938B0A809321
:104AB0008A0A10928D0A10928E0A10928F0A109212
:104AC000900A08951F920F920FB60F9211240BB601
:104AD0000F922F938F939F93EF93FF93E091210B6E
:104AE000F091220B8081E091270BF091280B82FD41
:104AF00012C0908180912A0B8F5F8F7320912B0BB6
:104B0000821751F0E0912A0BF0E0EF5EF44F958FA1
:104B100080932A0B01C08081FF91EF919F918F912B
:104B20002F910F900BBE0F900FBE0F901F901895F6
:104B30001F920F920FB60F9211240BB60F922F9364
:104B40003F934F935F936F937F938F939F93AF9315
:104B5000BF93EF93FF9381E19BE003DEFF91EF9121
:104B6000BF91AF919F918F917F916F915F914F9185
:104B70003F912F910F900BBE0F900FBE0F901F9083
:104B8000189581E19BE087DD21E0892B09F420E085
:104B9000822F08951092140B1092130B88EE93E05D
:104BA000A0E0B0E08093150B9093160BA093170B29
:104BB000B093180B8FEA95E09093120B8093110B32
:104BC0008DEC90E090931E0B80931D0B8CEC90E08D
:104BD0009093200B80931F0B88EC90E09093220B16
:104BE0008093210B89EC90E09093240B8093230B0E
:104BF0008AEC90E09093260B8093250B8EEC90E04E
:104C00009093280B8093270B10922A0B10922B0B5A
:104C100010922C0B10922D0B08951F920F920FB62D
:104C20000F9211240BB60F922F938F939F93EF93B4
:104C3000FF93E091BE0BF091BF0B8081E091C40B1C
:104C4000F091C50B82FD12C090818091C70B8F5FE0
:104C50008F732091C80B821751F0E091C70BF0E0E1
:104C6000E255F44F958F8093C70B01C08081FF916F
:104C7000EF919F918F912F910F900BBE0F900FBED0
:104C80000F901F9018951F920F920FB60F9211243C
:104C90000BB60F922F933F934F935F936F937F9336
:104CA0008F939F93AF93BF93EF93FF938EEA9BE015
:104CB00058DDFF91EF91BF91AF919F918F917F91BF
:104CC0006F915F914F913F912F910F900BBE0F907D
:104CD0000FBE0F901F9018958EEA9BE0DCDC21E060
:104CE000892B09F420E0822F08951092B10B1092C5
:104CF000B00B88EE93E0A0E0B0E08093B20B90930D
:104D0000B30BA093B40BB093B50B8FEA95E09093DF
:104D1000AF0B8093AE0B85ED90E09093BB0B80932F
:104D2000BA0B84ED90E09093BD0B8093BC0B80EDAB
:104D300090E09093BF0B8093BE0B81ED90E0909339
:104D4000C10B8093C00B82ED90E09093C30B8093D6
:104D5000C20B86ED90E09093C50B8093C40B10922C
:104D6000C70B1092C80B1092C90B1092CA0B089572
:104D70001F920F920FB60F9211240BB60F922F9322
:104D80008F939F93EF93FF93E0915B0CF0915C0CFA
:104D90008081E091610CF091620C82FD12C09081E3
:104DA0008091640C8F5F8F732091650C821751F096
:104DB000E091640CF0E0E55BF34F958F8093640C19
:104DC00001C08081FF91EF919F918F912F910F9062
:104DD0000BBE0F900FBE0F901F9018951F920F9251
:104DE0000FB60F9211240BB60F922F933F934F9350
:104DF0005F936F937F938F939F93AF93BF93EF9343
:104E0000FF938BE49CE0ADDCFF91EF91BF91AF91FC
:104E10009F918F917F916F915F914F913F912F91D2
:104E20000F900BBE0F900FBE0F901F9018958BE444
:104E30009CE031DC21E0892B09F420E0822F0895E9
:104E400010924E0C10924D0C88EE93E0A0E0B0E072
:104E500080934F0C9093500CA093510CB093520C34
:104E60008FEA95E090934C0C80934B0C85E391E096
:104E70009093580C8093570C84E391E090935A0CD4
:104E80008093590C80E391E090935C0C80935B0CD1
:104E900081E391E090935E0C80935D0C82E391E05E
:104EA0009093600C80935F0C86E391E09093620C8A
:104EB0008093610C1092640C1092650C1092660C39
:104EC0001092670C08950895C0DAFDDF0E949003E8
:104ED000C8E7D3E20E94DA012097E1F309DCFACFB8
:104EE000A9C4CF92DF92EF92FF920F931F93CF93BB
:104EF000DF937C016A01EB0100E010E00C151D0559
:104F000071F06991D701ED91FC910190F081E02D54
:104F1000C7011995892B19F00F5F1F4FEFCFC801FB
:104F2000DF91CF911F910F91FF90EF90DF90CF9085
:104F300008956115710581F0DB010D900020E9F7FE
:104F4000AD0141505109461B570BDC01ED91FC911D
:104F50000280F381E02D199480E090E00895E9CF7C
:104F6000DC01ED91FC910190F081E02D19946DE050
:104F700075E0DFCF0F931F93CF93DF93EC01D9DF61
:104F80008C01CE01F4DF800F911FDF91CF911F9133
:104F90000F9108958F929F92AF92BF92DF92EF92FE
:104FA000FF920F931F93CF93DF93CDB7DEB7A197F7
:104FB0000FB6F894DEBF0FBECDBF7C01F42FD52E07
:104FC000CB0119A2223008F42AE08E010F5D1F4F99
:104FD000822E912CA12CB12C6F2F7D2DA501940137
:104FE00030D3F22FD32ECA01015011096A3014F4C4
:104FF000E0E301C0E7E3E60FD801EC93232B242B79
:10500000252B51F7B801C70194DFA1960FB6F8948C
:10501000DEBF0FBECDBFDF91CF911F910F91FF90EB
:10502000EF90DF90BF90AF909F908F900895CF92B8
:10503000DF92EF92FF920F931F93CF93DF93EC01D8
:105040006A017B012115310579F4E881F98101902C
:10505000F081E02D642FDF91CF911F910F91FF9090
:10506000EF90DF90CF9019942A303105D9F477FF73
:1050700018C06DE275DF8C0144275527BA014C1921
:105080005D096E097F092AE0CE0184DF800F911F40
:10509000DF91CF911F910F91FF90EF90DF90CF9014
:1050A00008952AE0B701A601CE01DF91CF911F91AB
:1050B0000F91FF90EF90DF90CF906CCF0F931F93E5
:1050C000CF93DF93EC019A01AB01662757FD609502
:1050D000762FADDF8C01CE014ADF800F911FDF916B
:1050E000CF911F910F91089508955058BB27AA277B
:1050F0000ED0FCC1EDD130F0F2D120F031F49F3F61
:1051000011F41EF4BDC10EF4E095E7FBB3C1E92F25
:10511000FED180F3BA17620773078407950718F06A
:1051200071F49EF516C20EF4E0950B2EBA2FA02D49
:105130000B01B90190010C01CA01A0011124FF2744
:10514000591B99F0593F50F4503E68F11A16F0403F
:10515000A22F232F342F4427585FF3CF469537953E
:105160002795A795F0405395C9F77EF41F16BA0B03
:10517000620B730B840BBAF09150A1F0FF0FBB1FB1
:10518000661F771F881FC2F70EC0BA0F621F731FFA
:10519000841F48F4879577956795B795F7959E3F57
:1051A00008F0B3CF9395880F08F09927EE0F9795E5
:1051B000879508958DD158F080E891E009F49EEF2D
:1051C0008ED128F040E851E059F45EEF09C058C193
:1051D000C0C1E92FE0789BD168F3092E052AC1F3FD
:1051E000261737074807590738F00E2E07F8E0252D
:1051F00069F0E025E0640AC0EF6307F8009407FA5D
:10520000DB01B9019D01DC01CA01AD01EF9347D07B
:105210006DD10AD05F91552331F02BED3FE049E489
:1052200050FD49EC63CF0895DF93DD27B92FBF7799
:1052300040E85FE31616170648075B0710F4D92FFE
:1052400093D19F938F937F936F93F8D1E8E0F1E030
:105250001AD14CD12F913F914F915F9198D1DD237D
:1052600049F09058A2EA2AED3FE049EC5FE3D0789C
:105270005D274DDFDF913AC1D9D008F481E0089570
:105280000CD034C12CD140F023D130F021F45F3F59
:1052900019F0F0C051115EC1F3C039D198F39923D0
:1052A000C9F35523B1F3951B550BBB27AA276217EA
:1052B0007307840738F09F5F5F4F220F331F441F2F
:1052C000AA1FA9F333D00E2E3AF0E0E830D0915067
:1052D0005040E695001CCAF729D0FE2F27D0660F54
:1052E000771F881FBB1F261737074807AB07B0E893
:1052F00009F0BB0B802DBF01FF2793585F4F2AF0A9
:105300009E3F510568F0B6C025C15F3FECF3983E63
:10531000DCF3869577956795B795F7959F5FC9F705
:10532000880F911D9695879597F90895E1E0660F8E
:10533000771F881FBB1F621773078407BA0720F007
:10534000621B730B840BBA0BEE1F88F7E095089570
:1053500004D06894B111FEC00895E1D088F09F5741
:1053600090F0B92F9927B751A0F0D1F0660F771FB1
:10537000881F991F1AF0BA95C9F712C0B13081F091
:10538000E8D0B1E00895E5C0672F782F8827B85F8F
:1053900039F0B93FCCF3869577956795B395D9F7F2
:1053A0003EF490958095709561957F4F8F4F9F4FFC
:1053B0000895E89409C097FB3EF490958095709508
:1053C00061957F4F8F4F9F4F9923A9F0F92F96E951
:1053D000BB279395F695879577956795B795F111C6
:1053E000F8CFFAF4BB0F11F460FF1BC06F5F7F4F63
:1053F0008F4F9F4F16C0882311F096E911C0772375
:1054000021F09EE8872F762F05C0662371F096E87D
:10541000862F70E060E02AF09A95660F771F881F4C
:10542000DAF7880F9695879597F90895990F0008F0
:10543000550FAA0BE0E8FEEF16161706E807F90766
:10544000C0F012161306E407F50798F0621B730B01
:10545000840B950B39F40A2661F0232B242B252B82
:1054600021F408950A2609F4A140A6958FEF811D25
:10547000811D089597F99F6780E870E060E00895C6
:105480009FEF80EC0895DF93CF931F930F93FF92CC
:10549000EF92DF927B018C01689405C0DA2EEF0158
:1054A00076D0FE01E894A5912591359145915591CD
:1054B000AEF3EF012CDEFE019701A801DA9479F733
:1054C000DF90EF90FF900F911F91CF91DF910895A2
:1054D00000240A94161617061806090608950024D3
:1054E0000A9412161306140605060895092E03944D
:1054F000000C11F4882352F0BB0F40F4BF2B11F4C1
:1055000060FF04C06F5F7F4F8F4F9F4F089557FD1F
:105510009058440F551F59F05F3F71F04795880F21
:1055200097FB991F61F09F3F79F0879508951216B8
:1055300013061406551FF2CF4695F1DF08C0161664
:1055400017061806991FF1CF869571056105089415
:105550000895E894BB2766277727CB0197F908952C
:1055600065DF08F48FEF08959B01AC0160E070E007
:1055700080E89FE385CE0BD0B9CFAADF28F0AFDF5C
:1055800018F0952309F076CF7BCF1124E3CFBFDF4E
:10559000A0F3959FD1F3950F50E0551F629FF00146
:1055A000729FBB27F00DB11D639FAA27F00DB11D9F
:1055B000AA1F649F6627B00DA11D661F829F222728
:1055C000B00DA11D621F739FB00DA11D621F839FAF
:1055D000A00D611D221F749F3327A00D611D231F85
:1055E000849F600D211D822F762F6A2F11249F57D3
:1055F00050408AF0E1F088234AF0EE0FFF1FBB1FF6
:10560000661F771F881F91505040A9F79E3F510594
:1056100070F030CF9FCF5F3FECF3983EDCF3869580
:1056200077956795B795F795E7959F5FC1F7FE2B3F
:10563000880F911D9695879597F908959B01AC0168
:105640009ACFA1E21A2EAA1BBB1BFD010DC0AA1FF7
:10565000BB1FEE1FFF1FA217B307E407F50720F0DB
:10566000A21BB30BE40BF50B661F771F881F991F56
:105670001A9469F760957095809590959B01AC019F
:10568000BD01CF010895052E97FB16F400940FD0AD
:1056900057FD05D0D6DF07FC02D046F408C0509570
:1056A0004095309521953F4F4F4F5F4F089590950E
:1056B0008095709561957F4F8F4F9F4F0895EE0FA6
:1056C000FF1F0590F491E02D19940DD0A59F900D2A
:1056D000B49F900DA49F800D911D112408950790F3
:1056E000F691E02D1994A29FB001B39FC001A39F32
:1056F000700D811D1124911DB29F700D811D11240B
:10570000911D0895CF93DF938230910510F482E0CC
:1057100090E0E091EA0CF091EB0C20E030E0A0E0AA
:10572000B0E0309739F14081518148175907B8F0FE
:105730004817590771F482819381109729F01396C5
:105740009C938E9312972CC09093EB0C8093EA0C51
:1057500027C02115310531F04217530718F0A90170
:10576000DB0101C0EF019A01BD01DF010280F3817D
:10577000E02DD7CF21153105F9F0281B390B243046
:10578000310580F48A819B816115710521F0FB014F
:105790009383828304C09093EB0C8093EA0CFE0108
:1057A000329644C0FE01E20FF31F81939193225081
:1057B0003109398328833AC02091E80C3091E90CF3
:1057C000232B41F420910202309103023093E90C23
:1057D0002093E80C2091000230910102211531053F
:1057E00041F42DB73EB74091040250910502241BAD
:1057F000350BE091E80CF091E90CE217F307A0F407
:105800002E1B3F0B2817390778F0AC014E5F5F4F16
:105810002417350748F04E0F5F1F5093E90C409353
:10582000E80C8193919302C0E0E0F0E0CF01DF91BA
:10583000CF910895CF93DF93009709F487C0FC01BF
:10584000329713821282C091EA0CD091EB0C209710
:1058500081F420813181280F391F8091E80C9091CB
:10586000E90C8217930779F5F093E90CE093E80CC3
:105870006DC0DE0120E030E0AE17BF0750F4129695
:105880004D915C9113979D014115510509F1DA0184
:10589000F3CFB383A28340815181840F951F8A1770
:1058A0009B0771F48D919C911197840F951F02961F
:1058B0009183808312968D919C9113979383828319
:1058C0002115310529F4F093EB0CE093EA0C3EC06E
:1058D000D9011396FC93EE9312974D915D91A40F0D
:1058E000B51FEA17FB0779F480819181840F951F1A
:1058F0000296D90111969C938E938281938113967F
:105900009C938E931297E0E0F0E08A819B81009750
:1059100019F0FE01EC01F9CFCE0102962881398100
:10592000820F931F2091E80C3091E90C281739075A
:1059300069F4309729F41092EB0C1092EA0C02C033
:1059400013821282D093E90CC093E80CDF91CF91BF
:10595000089581E090E0F89491C4662777275DC2AE
:10596000FB01DC0104C08D910190801921F44150AC
:105970005040C8F7881B990B0895FC018191861748
:1059800021F08823D9F7992708953197CF010895F9
:10599000FB01DC014150504048F001900D92002085
:1059A000C9F701C01D9241505040E0F70895FB0136
:1059B00051915523A9F0BF01DC014D9145174111CB
:1059C000E1F759F4CD010190002049F04D914015C7
:1059D0004111C9F3FB014111EFCF81E090E0019744
:1059E00008950F931F93CF93DF93CDB7DEB72E9714
:1059F0000FB6F894DEBF0FBECDBF0E891F8986E0BB
:105A00008C831A8309838FEF9FE79E838D83AE017A
:105A1000465E5F4F688D798DCE01019610D0EF8183
:105A2000F885E00FF11F10822E960FB6F894DEBFB6
:105A30000FBECDBFDF91CF911F910F9108952F928F
:105A40003F924F925F926F927F928F929F92AF920E
:105A5000BF92CF92DF92EF92FF920F931F93CF935B
:105A6000DF93CDB7DEB72C970FB6F894DEBF0FBE2D
:105A7000CDBF7C016B018A01FC01178216828381F4
:105A800081FFB0C1CE0101964C01F7019381F6016F
:105A900093FD859193FF81916F01882309F49EC145
:105AA000853239F493FD859193FF81916F018532A1
:105AB00021F4B70190E04FD3E8CF512C312C20E0F6
:105AC0002032A0F48B3269F030F4803259F0833206
:105AD00069F420612CC08D3239F0803339F42160B3
